{"abi":[{"type":"function","name":"depositEth","inputs":[],"outputs":[],"stateMutability":"payable"},{"type":"function","name":"getBalance","inputs":[{"name":"user","type":"address","internalType":"address"}],"outputs":[{"name":"","type":"uint256","internalType":"uint256"}],"stateMutability":"view"},{"type":"function","name":"withdrawEth","inputs":[{"name":"amount","type":"uint256","internalType":"uint256"}],"outputs":[],"stateMutability":"nonpayable"}],"bytecode":{"object":"0x608060405234801561000f575f80fd5b5061065e8061001d5f395ff3fe608060405260043610610033575f3560e01c8063439370b114610037578063c311d04914610041578063f8b2cb4f14610069575b5f80fd5b61003f6100a5565b005b34801561004c575f80fd5b5061006760048036038101906100629190610334565b61013b565b005b348015610074575f80fd5b5061008f600480360381019061008a91906103b9565b6102b8565b60405161009c91906103f3565b60405180910390f35b5f34116100e7576040517f08c379a00000000000000000000000000000000000000000000000000000000081526004016100de90610466565b60405180910390fd5b345f803373ffffffffffffffffffffffffffffffffffffffff1673ffffffffffffffffffffffffffffffffffffffff1681526020019081526020015f205f82825461013291906104b1565b92505081905550565b805f803373ffffffffffffffffffffffffffffffffffffffff1673ffffffffffffffffffffffffffffffffffffffff1681526020019081526020015f205410156101ba576040517f08c379a00000000000000000000000000000000000000000000000000000000081526004016101b19061052e565b60405180910390fd5b805f803373ffffffffffffffffffffffffffffffffffffffff1673ffffffffffffffffffffffffffffffffffffffff1681526020019081526020015f205f828254610205919061054c565b925050819055505f3373ffffffffffffffffffffffffffffffffffffffff1682604051610231906105ac565b5f6040518083038185875af1925050503d805f811461026b576040519150601f19603f3d011682016040523d82523d5f602084013e610270565b606091505b50509050806102b4576040517f08c379a00000000000000000000000000000000000000000000000000000000081526004016102ab9061060a565b60405180910390fd5b5050565b5f805f8373ffffffffffffffffffffffffffffffffffffffff1673ffffffffffffffffffffffffffffffffffffffff1681526020019081526020015f20549050919050565b5f80fd5b5f819050919050565b61031381610301565b811461031d575f80fd5b50565b5f8135905061032e8161030a565b92915050565b5f60208284031215610349576103486102fd565b5b5f61035684828501610320565b91505092915050565b5f73ffffffffffffffffffffffffffffffffffffffff82169050919050565b5f6103888261035f565b9050919050565b6103988161037e565b81146103a2575f80fd5b50565b5f813590506103b38161038f565b92915050565b5f602082840312156103ce576103cd6102fd565b5b5f6103db848285016103a5565b91505092915050565b6103ed81610301565b82525050565b5f6020820190506104065f8301846103e4565b92915050565b5f82825260208201905092915050565b7f4d7573742073656e6420455448000000000000000000000000000000000000005f82015250565b5f610450600d8361040c565b915061045b8261041c565b602082019050919050565b5f6020820190508181035f83015261047d81610444565b9050919050565b7f4e487b71000000000000000000000000000000000000000000000000000000005f52601160045260245ffd5b5f6104bb82610301565b91506104c683610301565b92508282019050808211156104de576104dd610484565b5b92915050565b7f496e73756666696369656e742062616c616e63650000000000000000000000005f82015250565b5f61051860148361040c565b9150610523826104e4565b602082019050919050565b5f6020820190508181035f8301526105458161050c565b9050919050565b5f61055682610301565b915061056183610301565b925082820390508181111561057957610578610484565b5b92915050565b5f81905092915050565b50565b5f6105975f8361057f565b91506105a282610589565b5f82019050919050565b5f6105b68261058c565b9150819050919050565b7f5472616e73666572206661696c656400000000000000000000000000000000005f82015250565b5f6105f4600f8361040c565b91506105ff826105c0565b602082019050919050565b5f6020820190508181035f830152610621816105e8565b905091905056fea2646970667358221220b67cd2b101fb076f73af960361ca5bc3fc61e98145344571657675af60a068f064736f6c63430008140033","linkReferences":{}},"methodIdentifiers":{"depositEth()":"439370b1","getBalance(address)":"f8b2cb4f","withdrawEth(uint256)":"c311d049"},"id":19}